{
  "contractName": "VotingSystem",
  "abi": [
    {
      "constant": true,
      "inputs": [
        {
          "name": "",
          "type": "uint256"
        }
      ],
      "name": "candidates",
      "outputs": [
        {
          "name": "name",
          "type": "string"
        },
        {
          "name": "id",
          "type": "uint256"
        },
        {
          "name": "votes",
          "type": "uint256"
        }
      ],
      "payable": false,
      "stateMutability": "view",
      "type": "function"
    },
    {
      "constant": true,
      "inputs": [],
      "name": "owner",
      "outputs": [
        {
          "name": "",
          "type": "address"
        }
      ],
      "payable": false,
      "stateMutability": "view",
      "type": "function"
    },
    {
      "constant": true,
      "inputs": [],
      "name": "candidateCount",
      "outputs": [
        {
          "name": "",
          "type": "uint256"
        }
      ],
      "payable": false,
      "stateMutability": "view",
      "type": "function"
    },
    {
      "inputs": [],
      "payable": false,
      "stateMutability": "nonpayable",
      "type": "constructor"
    },
    {
      "anonymous": false,
      "inputs": [
        {
          "indexed": false,
          "name": "id",
          "type": "uint256"
        },
        {
          "indexed": false,
          "name": "name",
          "type": "string"
        }
      ],
      "name": "CandidateAdded",
      "type": "event"
    },
    {
      "anonymous": false,
      "inputs": [
        {
          "indexed": false,
          "name": "id",
          "type": "uint256"
        },
        {
          "indexed": false,
          "name": "name",
          "type": "string"
        }
      ],
      "name": "CandidateRemoved",
      "type": "event"
    },
    {
      "anonymous": false,
      "inputs": [
        {
          "indexed": false,
          "name": "voter",
          "type": "address"
        },
        {
          "indexed": false,
          "name": "candidateId",
          "type": "uint256"
        }
      ],
      "name": "Voted",
      "type": "event"
    },
    {
      "constant": false,
      "inputs": [
        {
          "name": "_name",
          "type": "string"
        }
      ],
      "name": "addCandidate",
      "outputs": [],
      "payable": false,
      "stateMutability": "nonpayable",
      "type": "function"
    },
    {
      "constant": false,
      "inputs": [
        {
          "name": "_id",
          "type": "uint256"
        }
      ],
      "name": "removeCandidate",
      "outputs": [],
      "payable": false,
      "stateMutability": "nonpayable",
      "type": "function"
    },
    {
      "constant": false,
      "inputs": [
        {
          "name": "_candidateId",
          "type": "uint256"
        }
      ],
      "name": "vote",
      "outputs": [],
      "payable": false,
      "stateMutability": "nonpayable",
      "type": "function"
    },
    {
      "constant": true,
      "inputs": [
        {
          "name": "user",
          "type": "address"
        }
      ],
      "name": "isOwner",
      "outputs": [
        {
          "name": "",
          "type": "bool"
        }
      ],
      "payable": false,
      "stateMutability": "view",
      "type": "function"
    },
    {
      "constant": true,
      "inputs": [],
      "name": "getAllCandidates",
      "outputs": [
        {
          "components": [
            {
              "name": "name",
              "type": "string"
            },
            {
              "name": "id",
              "type": "uint256"
            },
            {
              "name": "votes",
              "type": "uint256"
            }
          ],
          "name": "",
          "type": "tuple[]"
        }
      ],
      "payable": false,
      "stateMutability": "view",
      "type": "function"
    }
  ],
  "bytecode": "0x608060405234801561001057600080fd5b5033600360006101000a81548173ffffffffffffffffffffffffffffffffffffffff021916908373ffffffffffffffffffffffffffffffffffffffff160217905550600060028190555061116c806100696000396000f3fe608060405234801561001057600080fd5b50600436106100885760003560e01c80633477ee2e1161005b5780633477ee2e14610113578063462e91ec146101455780638da5cb5b14610161578063a9a981a31461017f57610088565b80630121b93f1461008d57806309e9d7e2146100a95780632e6997fe146100c55780632f54bf6e146100e3575b600080fd5b6100a760048036036100a29190810190610a6f565b61019d565b005b6100c360048036036100be9190810190610a6f565b61025e565b005b6100cd6103f6565b6040516100da9190610df6565b60405180910390f35b6100fd60048036036100f89190810190610a05565b61057c565b60405161010a9190610e18565b60405180910390f35b61012d60048036036101289190810190610a6f565b6105d6565b60405161013c93929190610e33565b60405180910390f35b61015f600480360361015a9190810190610a2e565b610698565b005b61016961084f565b6040516101769190610db2565b60405180910390f35b610187610875565b6040516101949190610ed1565b60405180910390f35b6001600082815260200190815260200160002060009054906101000a900460ff166101fd576040517f08c379a00000000000000000000000000000000000000000000000000000000081526004016101f490610e71565b60405180910390fd5b600080828152602001908152602001600020600201600081548092919060010191905055507f4d99b957a2bc29a30ebd96a7be8e68fe50a3c701db28a91436490b7d53870ca43382604051610253929190610dcd565b60405180910390a150565b600360009054906101000a900473ffffffffffffffffffffffffffffffffffffffff1673ffffffffffffffffffffffffffffffffffffffff163373ffffffffffffffffffffffffffffffffffffffff16146102ee576040517f08c379a00000000000000000000000000000000000000000000000000000000081526004016102e590610eb1565b60405180910390fd5b6001600082815260200190815260200160002060009054906101000a900460ff1661034e576040517f08c379a000000000000000000000000000000000000000000000000000000000815260040161034590610e71565b60405180910390fd5b7f8d662652a78c2e9ce96f9181f1cd23e1feb20980c5c52059a37c3c12160d742281600080848152602001908152602001600020600001604051610393929190610f1c565b60405180910390a1600080828152602001908152602001600020600080820160006103be919061087b565b6001820160009055600282016000905550506001600082815260200190815260200160002060006101000a81549060ff021916905550565b60608060025460405190808252806020026020018201604052801561043557816020015b6104226108c3565b81526020019060019003908161041a5790505b509050600080905060008090505b600254811015610573576001600082815260200190815260200160002060009054906101000a900460ff161561056657600080828152602001908152602001600020604051806060016040529081600082018054600181600116156101000203166002900480601f0160208091040260200160405190810160405280929190818152602001828054600181600116156101000203166002900480156105295780601f106104fe57610100808354040283529160200191610529565b820191906000526020600020905b81548152906001019060200180831161050c57829003601f168201915b505050505081526020016001820154815260200160028201548152505083838151811061055257fe5b602002602001018190525081806001019250505b8080600101915050610443565b50819250505090565b6000600360009054906101000a900473ffffffffffffffffffffffffffffffffffffffff1673ffffffffffffffffffffffffffffffffffffffff168273ffffffffffffffffffffffffffffffffffffffff16149050919050565b6000602052806000526040600020600091509050806000018054600181600116156101000203166002900480601f0160208091040260200160405190810160405280929190818152602001828054600181600116156101000203166002900480156106825780601f1061065757610100808354040283529160200191610682565b820191906000526020600020905b81548152906001019060200180831161066557829003601f168201915b5050505050908060010154908060020154905083565b600360009054906101000a900473ffffffffffffffffffffffffffffffffffffffff1673ffffffffffffffffffffffffffffffffffffffff163373ffffffffffffffffffffffffffffffffffffffff1614610728576040517f08c379a000000000000000000000000000000000000000000000000000000000815260040161071f90610eb1565b60405180910390fd5b600081511161076c576040517f08c379a000000000000000000000000000000000000000000000000000000000815260040161076390610e91565b60405180910390fd5b600060025490506040518060600160405280838152602001828152602001600081525060008083815260200190815260200160002060008201518160000190805190602001906107bd9291906108e4565b506020820151816001015560408201518160020155905050600180600083815260200190815260200160002060006101000a81548160ff0219169083151502179055506002600081548092919060010191905055507fe83b2a43e7e82d975c8a0a6d2f045153c869e111136a34d1889ab7b598e396a38183604051610843929190610eec565b60405180910390a15050565b600360009054906101000a900473ffffffffffffffffffffffffffffffffffffffff1681565b60025481565b50805460018160011615610100020316600290046000825580601f106108a157506108c0565b601f0160209004906000526020600020908101906108bf9190610964565b5b50565b60405180606001604052806060815260200160008152602001600081525090565b828054600181600116156101000203166002900490600052602060002090601f016020900481019282601f1061092557805160ff1916838001178555610953565b82800160010185558215610953579182015b82811115610952578251825591602001919060010190610937565b5b5090506109609190610964565b5090565b61098691905b8082111561098257600081600090555060010161096a565b5090565b90565b6000610995823561106d565b905092915050565b600082601f8301126109ae57600080fd5b81356109c16109bc82610f79565b610f4c565b915080825260208301602083018583830111156109dd57600080fd5b6109e88382846110df565b50505092915050565b60006109fd823561109f565b905092915050565b600060208284031215610a1757600080fd5b6000610a2584828501610989565b91505092915050565b600060208284031215610a4057600080fd5b600082013567ffffffffffffffff811115610a5a57600080fd5b610a668482850161099d565b91505092915050565b600060208284031215610a8157600080fd5b6000610a8f848285016109f1565b91505092915050565b6000610aa48383610d44565b905092915050565b610ab5816110a9565b82525050565b610ac481611025565b82525050565b6000610ad582610fc4565b610adf8185610ff2565b935083602082028501610af185610fa5565b60005b84811015610b2a578383038852610b0c838351610a98565b9250610b1782610fe5565b9150602088019750600181019050610af4565b508196508694505050505092915050565b610b4481611037565b82525050565b6000610b5582610fda565b610b5f8185611014565b9350610b6f8185602086016110ee565b610b7881611121565b840191505092915050565b6000610b8e82610fcf565b610b988185611003565b9350610ba88185602086016110ee565b610bb181611121565b840191505092915050565b6000610bc782610fcf565b610bd18185611014565b9350610be18185602086016110ee565b610bea81611121565b840191505092915050565b600081546001811660008114610c125760018114610c3857610c7c565b607f6002830416610c238187611014565b955060ff198316865260208601935050610c7c565b60028204610c468187611014565b9550610c5185610fb2565b60005b82811015610c7357815481890152600182019150602081019050610c54565b80880195505050505b505092915050565b6000610c91601883611014565b91507f43616e64696461746520646f6573206e6f7420657869737400000000000000006000830152602082019050919050565b6000610cd1601e83611014565b91507f43616e646964617465206e616d652063616e6e6f7420626520656d70747900006000830152602082019050919050565b6000610d11600e83611014565b91507f4e6f7420617574686f72697a65640000000000000000000000000000000000006000830152602082019050919050565b60006060830160008301518482036000860152610d618282610b83565b9150506020830151610d766020860182610d94565b506040830151610d896040860182610d94565b508091505092915050565b610d9d81611063565b82525050565b610dac81611063565b82525050565b6000602082019050610dc76000830184610abb565b92915050565b6000604082019050610de26000830185610aac565b610def6020830184610da3565b9392505050565b60006020820190508181036000830152610e108184610aca565b905092915050565b6000602082019050610e2d6000830184610b3b565b92915050565b60006060820190508181036000830152610e4d8186610bbc565b9050610e5c6020830185610da3565b610e696040830184610da3565b949350505050565b60006020820190508181036000830152610e8a81610c84565b9050919050565b60006020820190508181036000830152610eaa81610cc4565b9050919050565b60006020820190508181036000830152610eca81610d04565b9050919050565b6000602082019050610ee66000830184610da3565b92915050565b6000604082019050610f016000830185610da3565b8181036020830152610f138184610b4a565b90509392505050565b6000604082019050610f316000830185610da3565b8181036020830152610f438184610bf5565b90509392505050565b6000604051905081810181811067ffffffffffffffff82111715610f6f57600080fd5b8060405250919050565b600067ffffffffffffffff821115610f9057600080fd5b601f19601f8301169050602081019050919050565b6000602082019050919050565b60008160005260206000209050919050565b600081519050919050565b600081519050919050565b600081519050919050565b6000602082019050919050565b600082825260208201905092915050565b600082825260208201905092915050565b600082825260208201905092915050565b600061103082611043565b9050919050565b60008115159050919050565b600073ffffffffffffffffffffffffffffffffffffffff82169050919050565b6000819050919050565b60006110788261107f565b9050919050565b600073ffffffffffffffffffffffffffffffffffffffff82169050919050565b6000819050919050565b60006110b4826110bb565b9050919050565b60006110c6826110cd565b9050919050565b60006110d882611043565b9050919050565b82818337600083830152505050565b60005b8381101561110c5780820151818401526020810190506110f1565b8381111561111b576000848401525b50505050565b6000601f19601f830116905091905056fea265627a7a72305820960133bc0429b7cd63e40aa6706d068ab7aa45cc55f13ea4c96988f140e89c936c6578706572696d656e74616cf50037",
  "source": "// SPDX-License-Identifier: MIT\npragma solidity >=0.4.22 <0.9.0;\npragma experimental ABIEncoderV2;\n\ncontract VotingSystem {\n    struct Candidate {\n        string name;\n        uint id;\n        uint votes;\n    }\n\n    mapping(uint => Candidate) public candidates;\n    mapping(uint => bool) private candidateExists;\n\n    uint public candidateCount;\n    address public owner;\n\n    modifier onlyOwner() {\n        require(msg.sender == owner, \"Not authorized\");\n        _;\n    }\n\n    event CandidateAdded(uint id, string name);\n    event CandidateRemoved(uint id, string name);\n    event Voted(address voter, uint candidateId);\n\n    constructor() public{\n        owner = msg.sender;\n        candidateCount = 0;\n    }\n\n    \n    function addCandidate(string memory _name) public onlyOwner {\n        require(bytes(_name).length > 0, \"Candidate name cannot be empty\");\n\n        uint newId = candidateCount; \n        candidates[newId] = Candidate(_name, newId, 0);\n        candidateExists[newId] = true;\n        candidateCount++; \n\n        emit CandidateAdded(newId, _name);\n    }\n\n    \n    function removeCandidate(uint _id) public onlyOwner {\n        require(candidateExists[_id], \"Candidate does not exist\");\n\n        emit CandidateRemoved(_id, candidates[_id].name);\n\n        delete candidates[_id];\n        delete candidateExists[_id];\n    }\n\n    //whether a person has already voted or not is checked by the frontend\n    function vote(uint _candidateId) public {\n        require(candidateExists[_candidateId], \"Candidate does not exist\");\n\n        \n        candidates[_candidateId].votes++;\n        \n        //update database to store the address of the user who casted vote\n        emit Voted(msg.sender, _candidateId);\n    }\n\n    \n    function isOwner(address user) public view returns (bool) {\n        return user == owner;\n    }\n\n    \n    function getAllCandidates() public view returns (Candidate[] memory) {\n        Candidate[] memory allCandidates = new Candidate[](candidateCount);\n        uint index = 0;\n\n       \n        for (uint i = 0; i < candidateCount; i++) {\n            if (candidateExists[i]) {\n                allCandidates[index] = candidates[i];\n                index++;\n            }\n        }\n\n        return allCandidates;\n    }\n}",
  "sourcePath": "/media/talal/Primary/CS Projects/Full Stack Web Applications/Blockchain-Voting-System/Truffle/contracts/VotingSystem.sol",
  "compiler": {
    "name": "solc",
    "version": "0.5.7+commit.6da8b019.Emscripten.clang"
  },
  "schemaVersion": "3.4.16",
  "updatedAt": "2025-03-03T08:25:40.668Z",
  "networkType": "ethereum",
  "devdoc": {
    "methods": {}
  },
  "userdoc": {
    "methods": {}
  }
}