{
  "contractName": "VotingSystem",
  "abi": [
    {
      "inputs": [],
      "stateMutability": "nonpayable",
      "type": "constructor"
    },
    {
      "anonymous": false,
      "inputs": [
        {
          "indexed": false,
          "internalType": "uint256",
          "name": "id",
          "type": "uint256"
        },
        {
          "indexed": false,
          "internalType": "string",
          "name": "name",
          "type": "string"
        }
      ],
      "name": "CandidateAdded",
      "type": "event"
    },
    {
      "anonymous": false,
      "inputs": [
        {
          "indexed": false,
          "internalType": "uint256",
          "name": "id",
          "type": "uint256"
        },
        {
          "indexed": false,
          "internalType": "string",
          "name": "name",
          "type": "string"
        }
      ],
      "name": "CandidateRemoved",
      "type": "event"
    },
    {
      "anonymous": false,
      "inputs": [
        {
          "indexed": false,
          "internalType": "address",
          "name": "voter",
          "type": "address"
        },
        {
          "indexed": false,
          "internalType": "uint256",
          "name": "candidateId",
          "type": "uint256"
        }
      ],
      "name": "Voted",
      "type": "event"
    },
    {
      "inputs": [],
      "name": "candidateCount",
      "outputs": [
        {
          "internalType": "uint256",
          "name": "",
          "type": "uint256"
        }
      ],
      "stateMutability": "view",
      "type": "function"
    },
    {
      "inputs": [
        {
          "internalType": "uint256",
          "name": "",
          "type": "uint256"
        }
      ],
      "name": "candidates",
      "outputs": [
        {
          "internalType": "string",
          "name": "name",
          "type": "string"
        },
        {
          "internalType": "uint256",
          "name": "id",
          "type": "uint256"
        }
      ],
      "stateMutability": "view",
      "type": "function"
    },
    {
      "inputs": [],
      "name": "owner",
      "outputs": [
        {
          "internalType": "address",
          "name": "",
          "type": "address"
        }
      ],
      "stateMutability": "view",
      "type": "function"
    },
    {
      "inputs": [
        {
          "internalType": "uint256",
          "name": "",
          "type": "uint256"
        }
      ],
      "name": "votes",
      "outputs": [
        {
          "internalType": "uint256",
          "name": "",
          "type": "uint256"
        }
      ],
      "stateMutability": "view",
      "type": "function"
    },
    {
      "inputs": [
        {
          "internalType": "string",
          "name": "_name",
          "type": "string"
        }
      ],
      "name": "addCandidate",
      "outputs": [],
      "stateMutability": "nonpayable",
      "type": "function"
    },
    {
      "inputs": [
        {
          "internalType": "uint256",
          "name": "_id",
          "type": "uint256"
        }
      ],
      "name": "removeCandidate",
      "outputs": [],
      "stateMutability": "nonpayable",
      "type": "function"
    },
    {
      "inputs": [
        {
          "internalType": "uint256",
          "name": "_candidateId",
          "type": "uint256"
        }
      ],
      "name": "vote",
      "outputs": [],
      "stateMutability": "nonpayable",
      "type": "function"
    },
    {
      "inputs": [
        {
          "internalType": "uint256",
          "name": "_candidateId",
          "type": "uint256"
        }
      ],
      "name": "getVotes",
      "outputs": [
        {
          "internalType": "uint256",
          "name": "",
          "type": "uint256"
        }
      ],
      "stateMutability": "view",
      "type": "function"
    },
    {
      "inputs": [
        {
          "internalType": "address",
          "name": "user",
          "type": "address"
        }
      ],
      "name": "isOwner",
      "outputs": [
        {
          "internalType": "bool",
          "name": "",
          "type": "bool"
        }
      ],
      "stateMutability": "view",
      "type": "function"
    },
    {
      "inputs": [],
      "name": "getAllCandidates",
      "outputs": [
        {
          "components": [
            {
              "internalType": "string",
              "name": "name",
              "type": "string"
            },
            {
              "internalType": "uint256",
              "name": "id",
              "type": "uint256"
            }
          ],
          "internalType": "struct VotingSystem.Candidate[]",
          "name": "",
          "type": "tuple[]"
        }
      ],
      "stateMutability": "view",
      "type": "function"
    }
  ],
  "bytecode": "0x608060405234801561000f575f80fd5b503360045f6101000a81548173ffffffffffffffffffffffffffffffffffffffff021916908373ffffffffffffffffffffffffffffffffffffffff1602179055505f600381905550611424806100645f395ff3fe608060405234801561000f575f80fd5b506004361061009c575f3560e01c8063462e91ec11610064578063462e91ec146101575780635df81330146101735780638da5cb5b146101a3578063a9a981a3146101c1578063ff981099146101df5761009c565b80630121b93f146100a057806309e9d7e2146100bc5780632e6997fe146100d85780632f54bf6e146100f65780633477ee2e14610126575b5f80fd5b6100ba60048036038101906100b5919061097e565b61020f565b005b6100d660048036038101906100d1919061097e565b6102ce565b005b6100e061044f565b6040516100ed9190610b37565b60405180910390f35b610110600480360381019061010b9190610bb1565b6105d7565b60405161011d9190610bf6565b60405180910390f35b610140600480360381019061013b919061097e565b61062f565b60405161014e929190610c66565b60405180910390f35b610171600480360381019061016c9190610dc0565b6106d4565b005b61018d6004803603810190610188919061097e565b61086f565b60405161019a9190610e07565b60405180910390f35b6101ab610884565b6040516101b89190610e2f565b60405180910390f35b6101c96108a9565b6040516101d69190610e07565b60405180910390f35b6101f960048036038101906101f4919061097e565b6108af565b6040516102069190610e07565b60405180910390f35b60025f8281526020019081526020015f205f9054906101000a900460ff1661026c576040517f08c379a000000000000000000000000000000000000000000000000000000000815260040161026390610e92565b60405180910390fd5b60015f8281526020019081526020015f205f81548092919061028d90610edd565b91905055507f4d99b957a2bc29a30ebd96a7be8e68fe50a3c701db28a91436490b7d53870ca433826040516102c3929190610f24565b60405180910390a150565b60045f9054906101000a900473ffffffffffffffffffffffffffffffffffffffff1673ffffffffffffffffffffffffffffffffffffffff163373ffffffffffffffffffffffffffffffffffffffff161461035d576040517f08c379a000000000000000000000000000000000000000000000000000000000815260040161035490610f95565b60405180910390fd5b60025f8281526020019081526020015f205f9054906101000a900460ff166103ba576040517f08c379a00000000000000000000000000000000000000000000000000000000081526004016103b190610e92565b60405180910390fd5b7f8d662652a78c2e9ce96f9181f1cd23e1feb20980c5c52059a37c3c12160d7422815f808481526020019081526020015f205f016040516103fc9291906110a3565b60405180910390a15f808281526020019081526020015f205f8082015f61042391906108c9565b600182015f9055505060025f8281526020019081526020015f205f6101000a81549060ff021916905550565b60605f60035467ffffffffffffffff81111561046e5761046d610c9c565b5b6040519080825280602002602001820160405280156104a757816020015b610494610906565b81526020019060019003908161048c5790505b5090505f805b6003548110156105ce5760025f8281526020019081526020015f205f9054906101000a900460ff16156105bb575f808281526020019081526020015f206040518060400160405290815f8201805461050490610fe0565b80601f016020809104026020016040519081016040528092919081815260200182805461053090610fe0565b801561057b5780601f106105525761010080835404028352916020019161057b565b820191905f5260205f20905b81548152906001019060200180831161055e57829003601f168201915b505050505081526020016001820154815250508383815181106105a1576105a06110d1565b5b602002602001018190525081806105b790610edd565b9250505b80806105c690610edd565b9150506104ad565b50819250505090565b5f60045f9054906101000a900473ffffffffffffffffffffffffffffffffffffffff1673ffffffffffffffffffffffffffffffffffffffff168273ffffffffffffffffffffffffffffffffffffffff16149050919050565b5f602052805f5260405f205f91509050805f01805461064d90610fe0565b80601f016020809104026020016040519081016040528092919081815260200182805461067990610fe0565b80156106c45780601f1061069b576101008083540402835291602001916106c4565b820191905f5260205f20905b8154815290600101906020018083116106a757829003601f168201915b5050505050908060010154905082565b60045f9054906101000a900473ffffffffffffffffffffffffffffffffffffffff1673ffffffffffffffffffffffffffffffffffffffff163373ffffffffffffffffffffffffffffffffffffffff1614610763576040517f08c379a000000000000000000000000000000000000000000000000000000000815260040161075a90610f95565b60405180910390fd5b5f8151116107a6576040517f08c379a000000000000000000000000000000000000000000000000000000000815260040161079d90611148565b60405180910390fd5b5f60035490506040518060400160405280838152602001828152505f808381526020019081526020015f205f820151815f0190816107e491906112f1565b5060208201518160010155905050600160025f8381526020019081526020015f205f6101000a81548160ff02191690831515021790555060035f81548092919061082d90610edd565b91905055507fe83b2a43e7e82d975c8a0a6d2f045153c869e111136a34d1889ab7b598e396a381836040516108639291906113c0565b60405180910390a15050565b6001602052805f5260405f205f915090505481565b60045f9054906101000a900473ffffffffffffffffffffffffffffffffffffffff1681565b60035481565b5f60015f8381526020019081526020015f20549050919050565b5080546108d590610fe0565b5f825580601f106108e65750610903565b601f0160209004905f5260205f2090810190610902919061091f565b5b50565b6040518060400160405280606081526020015f81525090565b5b80821115610936575f815f905550600101610920565b5090565b5f604051905090565b5f80fd5b5f80fd5b5f819050919050565b61095d8161094b565b8114610967575f80fd5b50565b5f8135905061097881610954565b92915050565b5f6020828403121561099357610992610943565b5b5f6109a08482850161096a565b91505092915050565b5f81519050919050565b5f82825260208201905092915050565b5f819050602082019050919050565b5f81519050919050565b5f82825260208201905092915050565b5f5b83811015610a095780820151818401526020810190506109ee565b5f8484015250505050565b5f601f19601f8301169050919050565b5f610a2e826109d2565b610a3881856109dc565b9350610a488185602086016109ec565b610a5181610a14565b840191505092915050565b610a658161094b565b82525050565b5f604083015f8301518482035f860152610a858282610a24565b9150506020830151610a9a6020860182610a5c565b508091505092915050565b5f610ab08383610a6b565b905092915050565b5f602082019050919050565b5f610ace826109a9565b610ad881856109b3565b935083602082028501610aea856109c3565b805f5b85811015610b255784840389528151610b068582610aa5565b9450610b1183610ab8565b925060208a01995050600181019050610aed565b50829750879550505050505092915050565b5f6020820190508181035f830152610b4f8184610ac4565b905092915050565b5f73ffffffffffffffffffffffffffffffffffffffff82169050919050565b5f610b8082610b57565b9050919050565b610b9081610b76565b8114610b9a575f80fd5b50565b5f81359050610bab81610b87565b92915050565b5f60208284031215610bc657610bc5610943565b5b5f610bd384828501610b9d565b91505092915050565b5f8115159050919050565b610bf081610bdc565b82525050565b5f602082019050610c095f830184610be7565b92915050565b5f82825260208201905092915050565b5f610c29826109d2565b610c338185610c0f565b9350610c438185602086016109ec565b610c4c81610a14565b840191505092915050565b610c608161094b565b82525050565b5f6040820190508181035f830152610c7e8185610c1f565b9050610c8d6020830184610c57565b9392505050565b5f80fd5b5f80fd5b7f4e487b71000000000000000000000000000000000000000000000000000000005f52604160045260245ffd5b610cd282610a14565b810181811067ffffffffffffffff82111715610cf157610cf0610c9c565b5b80604052505050565b5f610d0361093a565b9050610d0f8282610cc9565b919050565b5f67ffffffffffffffff821115610d2e57610d2d610c9c565b5b610d3782610a14565b9050602081019050919050565b828183375f83830152505050565b5f610d64610d5f84610d14565b610cfa565b905082815260208101848484011115610d8057610d7f610c98565b5b610d8b848285610d44565b509392505050565b5f82601f830112610da757610da6610c94565b5b8135610db7848260208601610d52565b91505092915050565b5f60208284031215610dd557610dd4610943565b5b5f82013567ffffffffffffffff811115610df257610df1610947565b5b610dfe84828501610d93565b91505092915050565b5f602082019050610e1a5f830184610c57565b92915050565b610e2981610b76565b82525050565b5f602082019050610e425f830184610e20565b92915050565b7f43616e64696461746520646f6573206e6f7420657869737400000000000000005f82015250565b5f610e7c601883610c0f565b9150610e8782610e48565b602082019050919050565b5f6020820190508181035f830152610ea981610e70565b9050919050565b7f4e487b71000000000000000000000000000000000000000000000000000000005f52601160045260245ffd5b5f610ee78261094b565b91507fffffffffffffffffffffffffffffffffffffffffffffffffffffffffffffffff8203610f1957610f18610eb0565b5b600182019050919050565b5f604082019050610f375f830185610e20565b610f446020830184610c57565b9392505050565b7f4e6f7420617574686f72697a65640000000000000000000000000000000000005f82015250565b5f610f7f600e83610c0f565b9150610f8a82610f4b565b602082019050919050565b5f6020820190508181035f830152610fac81610f73565b9050919050565b7f4e487b71000000000000000000000000000000000000000000000000000000005f52602260045260245ffd5b5f6002820490506001821680610ff757607f821691505b60208210810361100a57611009610fb3565b5b50919050565b5f819050815f5260205f209050919050565b5f815461102e81610fe0565b6110388186610c0f565b9450600182165f811461105257600181146110685761109a565b60ff19831686528115156020028601935061109a565b61107185611010565b5f5b8381101561109257815481890152600182019150602081019050611073565b808801955050505b50505092915050565b5f6040820190506110b65f830185610c57565b81810360208301526110c88184611022565b90509392505050565b7f4e487b71000000000000000000000000000000000000000000000000000000005f52603260045260245ffd5b7f43616e646964617465206e616d652063616e6e6f7420626520656d70747900005f82015250565b5f611132601e83610c0f565b915061113d826110fe565b602082019050919050565b5f6020820190508181035f83015261115f81611126565b9050919050565b5f6020601f8301049050919050565b5f82821b905092915050565b5f600883026111b07fffffffffffffffffffffffffffffffffffffffffffffffffffffffffffffffff82611175565b6111ba8683611175565b95508019841693508086168417925050509392505050565b5f819050919050565b5f6111f56111f06111eb8461094b565b6111d2565b61094b565b9050919050565b5f819050919050565b61120e836111db565b61122261121a826111fc565b848454611181565b825550505050565b5f90565b61123661122a565b611241818484611205565b505050565b5b81811015611264576112595f8261122e565b600181019050611247565b5050565b601f8211156112a95761127a81611010565b61128384611166565b81016020851015611292578190505b6112a661129e85611166565b830182611246565b50505b505050565b5f82821c905092915050565b5f6112c95f19846008026112ae565b1980831691505092915050565b5f6112e183836112ba565b9150826002028217905092915050565b6112fa826109d2565b67ffffffffffffffff81111561131357611312610c9c565b5b61131d8254610fe0565b611328828285611268565b5f60209050601f831160018114611359575f8415611347578287015190505b61135185826112d6565b8655506113b8565b601f19841661136786611010565b5f5b8281101561138e57848901518255600182019150602085019450602081019050611369565b868310156113ab57848901516113a7601f8916826112ba565b8355505b6001600288020188555050505b505050505050565b5f6040820190506113d35f830185610c57565b81810360208301526113e58184610c1f565b9050939250505056fea2646970667358221220fab88e7587d2381e9f8ecd213911a8ec17cde4372a3229820b98840d4df1226364736f6c63430008140033",
  "immutableReferences": {},
  "source": "// SPDX-License-Identifier: MIT\npragma solidity ^0.8.0;\npragma experimental ABIEncoderV2;\n\ncontract VotingSystem {\n    struct Candidate {\n        string name;\n        uint id;\n    }\n\n    mapping(uint => Candidate) public candidates;\n    mapping(uint => uint) public votes; \n    mapping(uint => bool) private candidateExists;\n\n    uint public candidateCount;\n    address public owner;\n\n    modifier onlyOwner() {\n        require(msg.sender == owner, \"Not authorized\");\n        _;\n    }\n\n    event CandidateAdded(uint id, string name);\n    event CandidateRemoved(uint id, string name);\n    event Voted(address voter, uint candidateId);\n\n    constructor() public{\n        owner = msg.sender;\n        candidateCount = 0;\n    }\n\n    \n    function addCandidate(string memory _name) public onlyOwner {\n        require(bytes(_name).length > 0, \"Candidate name cannot be empty\");\n\n        uint newId = candidateCount; \n        candidates[newId] = Candidate(_name, newId);\n        candidateExists[newId] = true;\n        candidateCount++; \n\n        emit CandidateAdded(newId, _name);\n    }\n\n    \n    function removeCandidate(uint _id) public onlyOwner {\n        require(candidateExists[_id], \"Candidate does not exist\");\n\n        emit CandidateRemoved(_id, candidates[_id].name);\n\n        delete candidates[_id];\n        delete candidateExists[_id];\n    }\n\n    //whether a person has already voted or not is checked by the frontend\n    function vote(uint _candidateId) public {\n        require(candidateExists[_candidateId], \"Candidate does not exist\");\n\n        \n        votes[_candidateId]++;\n        \n        //update database to store the address of the user who casted vote\n        emit Voted(msg.sender, _candidateId);\n    }\n\n    \n    function getVotes(uint _candidateId) public view returns (uint) {\n        return votes[_candidateId];\n    }\n\n    \n    function isOwner(address user) public view returns (bool) {\n        return user == owner;\n    }\n\n    \n    function getAllCandidates() public view returns (Candidate[] memory) {\n        Candidate[] memory allCandidates = new Candidate[](candidateCount);\n        uint index = 0;\n\n       \n        for (uint i = 0; i < candidateCount; i++) {\n            if (candidateExists[i]) {\n                allCandidates[index] = candidates[i];\n                index++;\n            }\n        }\n\n        return allCandidates;\n    }\n}\n",
  "sourcePath": "/Users/noorfatima/Desktop/Blockchain-Voting-System/Truffle/contracts/VotingSystem.sol",
  "compiler": {
    "name": "solc",
    "version": "0.8.20+commit.a1b79de6.Emscripten.clang"
  },
  "schemaVersion": "3.4.16",
  "updatedAt": "2025-02-15T08:10:06.463Z",
  "devdoc": {
    "kind": "dev",
    "methods": {},
    "version": 1
  },
  "userdoc": {
    "kind": "user",
    "methods": {},
    "version": 1
  }
}