{
  "contractName": "VotingSystem",
  "abi": [
    {
      "constant": true,
      "inputs": [
        {
          "name": "",
          "type": "uint256"
        }
      ],
      "name": "candidates",
      "outputs": [
        {
          "name": "name",
          "type": "string"
        },
        {
          "name": "id",
          "type": "uint256"
        }
      ],
      "payable": false,
      "stateMutability": "view",
      "type": "function"
    },
    {
      "constant": true,
      "inputs": [],
      "name": "owner",
      "outputs": [
        {
          "name": "",
          "type": "address"
        }
      ],
      "payable": false,
      "stateMutability": "view",
      "type": "function"
    },
    {
      "inputs": [],
      "payable": false,
      "stateMutability": "nonpayable",
      "type": "constructor"
    },
    {
      "anonymous": false,
      "inputs": [
        {
          "indexed": false,
          "name": "id",
          "type": "uint256"
        },
        {
          "indexed": false,
          "name": "name",
          "type": "string"
        }
      ],
      "name": "CandidateAdded",
      "type": "event"
    },
    {
      "anonymous": false,
      "inputs": [
        {
          "indexed": false,
          "name": "id",
          "type": "uint256"
        },
        {
          "indexed": false,
          "name": "name",
          "type": "string"
        }
      ],
      "name": "CandidateRemoved",
      "type": "event"
    },
    {
      "constant": false,
      "inputs": [
        {
          "name": "_name",
          "type": "string"
        },
        {
          "name": "_id",
          "type": "uint256"
        }
      ],
      "name": "addCandidate",
      "outputs": [],
      "payable": false,
      "stateMutability": "nonpayable",
      "type": "function"
    },
    {
      "constant": false,
      "inputs": [
        {
          "name": "_id",
          "type": "uint256"
        }
      ],
      "name": "removeCandidate",
      "outputs": [],
      "payable": false,
      "stateMutability": "nonpayable",
      "type": "function"
    },
    {
      "constant": false,
      "inputs": [
        {
          "name": "_email",
          "type": "string"
        }
      ],
      "name": "registerEmail",
      "outputs": [],
      "payable": false,
      "stateMutability": "nonpayable",
      "type": "function"
    },
    {
      "constant": true,
      "inputs": [],
      "name": "getEmail",
      "outputs": [
        {
          "name": "",
          "type": "string"
        }
      ],
      "payable": false,
      "stateMutability": "view",
      "type": "function"
    },
    {
      "constant": true,
      "inputs": [],
      "name": "getAllCandidates",
      "outputs": [
        {
          "components": [
            {
              "name": "name",
              "type": "string"
            },
            {
              "name": "id",
              "type": "uint256"
            }
          ],
          "name": "",
          "type": "tuple[]"
        }
      ],
      "payable": false,
      "stateMutability": "view",
      "type": "function"
    },
    {
      "constant": true,
      "inputs": [],
      "name": "getCandidateCount",
      "outputs": [
        {
          "name": "",
          "type": "uint256"
        }
      ],
      "payable": false,
      "stateMutability": "view",
      "type": "function"
    }
  ],
  "bytecode": "0x608060405234801561001057600080fd5b5033600560006101000a81548173ffffffffffffffffffffffffffffffffffffffff021916908373ffffffffffffffffffffffffffffffffffffffff16021790555061154e806100616000396000f3fe608060405260043610610088576000357c01000000000000000000000000000000000000000000000000000000009004806309ba4a4a1461008d57806309e9d7e2146100b65780632e6997fe146100df57806330a563471461010a5780633477ee2e146101355780637e79e8ba146101735780638da5cb5b1461019e578063e23cec7b146101c9575b600080fd5b34801561009957600080fd5b506100b460048036036100af9190810190610df1565b6101f2565b005b3480156100c257600080fd5b506100dd60048036036100d89190810190610e86565b610435565b005b3480156100eb57600080fd5b506100f46105d2565b6040516101019190611206565b60405180910390f35b34801561011657600080fd5b5061011f610779565b60405161012c919061135a565b60405180910390f35b34801561014157600080fd5b5061015c60048036036101579190810190610e86565b610786565b60405161016a92919061124a565b60405180910390f35b34801561017f57600080fd5b50610188610842565b6040516101959190611228565b60405180910390f35b3480156101aa57600080fd5b506101b36109b9565b6040516101c091906111eb565b60405180910390f35b3480156101d557600080fd5b506101f060048036036101eb9190810190610e32565b6109df565b005b60008151111515610238576040517f08c379a000000000000000000000000000000000000000000000000000000000815260040161022f906112da565b60405180910390fd5b600073ffffffffffffffffffffffffffffffffffffffff166004826040518082805190602001908083835b6020831015156102885780518252602082019150602081019050602083039250610263565b6001836020036101000a038019825116818451168082178552505050505050905001915050908152602001604051809103902060009054906101000a900473ffffffffffffffffffffffffffffffffffffffff1673ffffffffffffffffffffffffffffffffffffffff16141515610334576040517f08c379a000000000000000000000000000000000000000000000000000000000815260040161032b9061131a565b60405180910390fd5b80600360003373ffffffffffffffffffffffffffffffffffffffff1673ffffffffffffffffffffffffffffffffffffffff1681526020019081526020016000209080519060200190610387929190610c00565b50336004826040518082805190602001908083835b6020831015156103c1578051825260208201915060208101905060208303925061039c565b6001836020036101000a038019825116818451168082178552505050505050905001915050908152602001604051809103902060006101000a81548173ffffffffffffffffffffffffffffffffffffffff021916908373ffffffffffffffffffffffffffffffffffffffff16021790555050565b600560009054906101000a900473ffffffffffffffffffffffffffffffffffffffff1673ffffffffffffffffffffffffffffffffffffffff163373ffffffffffffffffffffffffffffffffffffffff161415156104c7576040517f08c379a00000000000000000000000000000000000000000000000000000000081526004016104be9061133a565b60405180910390fd5b6002600082815260200190815260200160002060009054906101000a900460ff161515610529576040517f08c379a00000000000000000000000000000000000000000000000000000000081526004016105209061129a565b60405180910390fd5b7f8d662652a78c2e9ce96f9181f1cd23e1feb20980c5c52059a37c3c12160d74228160008084815260200190815260200160002060000160405161056e9291906113a5565b60405180910390a1600080828152602001908152602001600020600080820160006105999190610c80565b6001820160009055505060006002600083815260200190815260200160002060006101000a81548160ff02191690831515021790555050565b60606000600180549050905060608160405190808252806020026020018201604052801561061a57816020015b610607610cc8565b8152602001906001900390816105ff5790505b509050600080905060008090505b8381101561076f57600060018281548110151561064157fe5b906000526020600020015490506002600082815260200190815260200160002060009054906101000a900460ff161561076157600080828152602001908152602001600020604080519081016040529081600082018054600181600116156101000203166002900480601f01602080910402602001604051908101604052809291908181526020018280546001816001161561010002031660029004801561072a5780601f106106ff5761010080835404028352916020019161072a565b820191906000526020600020905b81548152906001019060200180831161070d57829003601f168201915b50505050508152602001600182015481525050848481518110151561074b57fe5b9060200190602002018190525082806001019350505b508080600101915050610628565b5081935050505090565b6000600180549050905090565b6000602052806000526040600020600091509050806000018054600181600116156101000203166002900480601f0160208091040260200160405190810160405280929190818152602001828054600181600116156101000203166002900480156108325780601f1061080757610100808354040283529160200191610832565b820191906000526020600020905b81548152906001019060200180831161081557829003601f168201915b5050505050908060010154905082565b60606000600360003373ffffffffffffffffffffffffffffffffffffffff1673ffffffffffffffffffffffffffffffffffffffff1681526020019081526020016000208054600181600116156101000203166002900490501115156108dc576040517f08c379a00000000000000000000000000000000000000000000000000000000081526004016108d39061127a565b60405180910390fd5b600360003373ffffffffffffffffffffffffffffffffffffffff1673ffffffffffffffffffffffffffffffffffffffff1681526020019081526020016000208054600181600116156101000203166002900480601f0160208091040260200160405190810160405280929190818152602001828054600181600116156101000203166002900480156109af5780601f10610984576101008083540402835291602001916109af565b820191906000526020600020905b81548152906001019060200180831161099257829003601f168201915b5050505050905090565b600560009054906101000a900473ffffffffffffffffffffffffffffffffffffffff1681565b600560009054906101000a900473ffffffffffffffffffffffffffffffffffffffff1673ffffffffffffffffffffffffffffffffffffffff163373ffffffffffffffffffffffffffffffffffffffff16141515610a71576040517f08c379a0000000000000000000000000000000000000000000000000000000008152600401610a689061133a565b60405180910390fd5b60008251111515610ab7576040517f08c379a0000000000000000000000000000000000000000000000000000000008152600401610aae906112fa565b60405180910390fd5b6002600082815260200190815260200160002060009054906101000a900460ff16151515610b1a576040517f08c379a0000000000000000000000000000000000000000000000000000000008152600401610b11906112ba565b60405180910390fd5b6040805190810160405280838152602001828152506000808381526020019081526020016000206000820151816000019080519060200190610b5d929190610ce2565b5060208201518160010155905050600181908060018154018082558091505090600182039060005260206000200160009091929091909150555060016002600083815260200190815260200160002060006101000a81548160ff0219169083151502179055507fe83b2a43e7e82d975c8a0a6d2f045153c869e111136a34d1889ab7b598e396a38183604051610bf4929190611375565b60405180910390a15050565b828054600181600116156101000203166002900490600052602060002090601f016020900481019282601f10610c4157805160ff1916838001178555610c6f565b82800160010185558215610c6f579182015b82811115610c6e578251825591602001919060010190610c53565b5b509050610c7c9190610d62565b5090565b50805460018160011615610100020316600290046000825580601f10610ca65750610cc5565b601f016020900490600052602060002090810190610cc49190610d62565b5b50565b604080519081016040528060608152602001600081525090565b828054600181600116156101000203166002900490600052602060002090601f016020900481019282601f10610d2357805160ff1916838001178555610d51565b82800160010185558215610d51579182015b82811115610d50578251825591602001919060010190610d35565b5b509050610d5e9190610d62565b5090565b610d8491905b80821115610d80576000816000905550600101610d68565b5090565b90565b600082601f8301121515610d9a57600080fd5b8135610dad610da882611402565b6113d5565b91508082526020830160208301858383011115610dc957600080fd5b610dd48382846114c1565b50505092915050565b6000610de982356114b7565b905092915050565b600060208284031215610e0357600080fd5b600082013567ffffffffffffffff811115610e1d57600080fd5b610e2984828501610d87565b91505092915050565b60008060408385031215610e4557600080fd5b600083013567ffffffffffffffff811115610e5f57600080fd5b610e6b85828601610d87565b9250506020610e7c85828601610ddd565b9150509250929050565b600060208284031215610e9857600080fd5b6000610ea684828501610ddd565b91505092915050565b610eb88161147b565b82525050565b6000610ec98261144d565b80845260208401935083602082028501610ee28561142e565b60005b84811015610f1b578383038852610efd83835161119f565b9250610f088261146e565b9150602088019750600181019050610ee5565b508196508694505050505092915050565b6000610f3782611463565b808452610f4b8160208601602086016114d0565b610f5481611503565b602085010191505092915050565b6000610f6d82611458565b808452610f818160208601602086016114d0565b610f8a81611503565b602085010191505092915050565b600081546001811660008114610fb55760018114610fd557611016565b607f600283041680865260ff198316602087015260408601935050611016565b60028204808652602086019550610feb8561143b565b60005b8281101561100d57815481890152600182019150602081019050610fee565b80880195505050505b505092915050565b6000601482527f456d61696c206e6f7420726567697374657265640000000000000000000000006020830152604082019050919050565b6000601882527f43616e64696461746520646f6573206e6f7420657869737400000000000000006020830152604082019050919050565b6000601b82527f43616e64696461746520494420616c72656164792065786973747300000000006020830152604082019050919050565b6000601582527f456d61696c2063616e6e6f7420626520656d70747900000000000000000000006020830152604082019050919050565b6000601e82527f43616e646964617465206e616d652063616e6e6f7420626520656d70747900006020830152604082019050919050565b6000601882527f456d61696c20616c7265616479207265676973746572656400000000000000006020830152604082019050919050565b6000600e82527f4e6f7420617574686f72697a65640000000000000000000000000000000000006020830152604082019050919050565b600060408301600083015184820360008601526111bc8282610f62565b91505060208301516111d160208601826111dc565b508091505092915050565b6111e5816114ad565b82525050565b60006020820190506112006000830184610eaf565b92915050565b600060208201905081810360008301526112208184610ebe565b905092915050565b600060208201905081810360008301526112428184610f2c565b905092915050565b600060408201905081810360008301526112648185610f62565b905061127360208301846111dc565b9392505050565b600060208201905081810360008301526112938161101e565b9050919050565b600060208201905081810360008301526112b381611055565b9050919050565b600060208201905081810360008301526112d38161108c565b9050919050565b600060208201905081810360008301526112f3816110c3565b9050919050565b60006020820190508181036000830152611313816110fa565b9050919050565b6000602082019050818103600083015261133381611131565b9050919050565b6000602082019050818103600083015261135381611168565b9050919050565b600060208201905061136f60008301846111dc565b92915050565b600060408201905061138a60008301856111dc565b818103602083015261139c8184610f2c565b90509392505050565b60006040820190506113ba60008301856111dc565b81810360208301526113cc8184610f98565b90509392505050565b6000604051905081810181811067ffffffffffffffff821117156113f857600080fd5b8060405250919050565b600067ffffffffffffffff82111561141957600080fd5b601f19601f8301169050602081019050919050565b6000602082019050919050565b60008160005260206000209050919050565b600081519050919050565b600081519050919050565b600081519050919050565b6000602082019050919050565b60006114868261148d565b9050919050565b600073ffffffffffffffffffffffffffffffffffffffff82169050919050565b6000819050919050565b6000819050919050565b82818337600083830152505050565b60005b838110156114ee5780820151818401526020810190506114d3565b838111156114fd576000848401525b50505050565b6000601f19601f830116905091905056fea265627a7a72305820f6f643631d6cb6cbb25382766473b3f78d4777f8d9e253cf490b934305c1a9fd6c6578706572696d656e74616cf50037",
  "source": "// SPDX-License-Identifier: MIT\npragma solidity >=0.4.22 <0.9.0;\npragma experimental ABIEncoderV2;\n\ncontract VotingSystem {\n    struct Candidate {\n        string name;\n        uint id;\n    }\n\n    mapping(uint => Candidate) public candidates;\n    uint[] private candidateIDs;\n    mapping(uint => bool) private candidateExists;\n\n    mapping(address => string) private emails;\n    mapping(string => address) private emailToAddress;\n\n    address public owner;\n\n    modifier onlyOwner() {\n        require(msg.sender == owner, \"Not authorized\");\n        _;\n    }\n\n    event CandidateAdded(uint id, string name);\n    event CandidateRemoved(uint id, string name);\n\n    // Constructor with \"public\" visibility for Solidity <0.7.0\n    constructor() public {\n        owner = msg.sender;\n    }\n\n    function addCandidate(string memory _name, uint _id) public onlyOwner {\n        require(bytes(_name).length > 0, \"Candidate name cannot be empty\");\n        require(!candidateExists[_id], \"Candidate ID already exists\");\n\n        candidates[_id] = Candidate(_name, _id);\n        candidateIDs.push(_id);\n        candidateExists[_id] = true;\n\n        emit CandidateAdded(_id, _name);\n    }\n\n    function removeCandidate(uint _id) public onlyOwner {\n        require(candidateExists[_id], \"Candidate does not exist\");\n\n        emit CandidateRemoved(_id, candidates[_id].name);\n\n        delete candidates[_id];\n        candidateExists[_id] = false;\n    }\n\n    function registerEmail(string memory _email) public {\n        require(bytes(_email).length > 0, \"Email cannot be empty\");\n        require(emailToAddress[_email] == address(0), \"Email already registered\");\n\n        emails[msg.sender] = _email;\n        emailToAddress[_email] = msg.sender;\n    }\n\n    function getEmail() public view returns (string memory) {\n        require(bytes(emails[msg.sender]).length > 0, \"Email not registered\");\n        return emails[msg.sender];\n    }\n\n    function getAllCandidates() public view returns (Candidate[] memory) {\n        uint count = candidateIDs.length;\n        Candidate[] memory allCandidates = new Candidate[](count);\n        uint index = 0;\n\n        for (uint i = 0; i < count; i++) {\n            uint id = candidateIDs[i];\n            if (candidateExists[id]) {\n                allCandidates[index] = candidates[id];\n                index++;\n            }\n        }\n\n        return allCandidates;\n    }\n\n    function getCandidateCount() public view returns (uint) {\n        return candidateIDs.length;\n    }\n}\n",
  "sourcePath": "/Users/noorfatima/Desktop/new/Voting-System/Blockchain-Voting-System/Truffle/contracts/VotingSystem.sol",
  "compiler": {
    "name": "solc",
    "version": "0.5.1+commit.c8a2cb62.Emscripten.clang"
  },
  "schemaVersion": "3.4.16",
  "updatedAt": "2025-02-01T16:16:44.694Z",
  "networkType": "ethereum",
  "devdoc": {
    "methods": {}
  },
  "userdoc": {
    "methods": {}
  }
}