{
  "contractName": "VotingSystem",
  "abi": [
    {
      "constant": true,
      "inputs": [
        {
          "name": "",
          "type": "uint256"
        }
      ],
      "name": "candidates",
      "outputs": [
        {
          "name": "name",
          "type": "string"
        },
        {
          "name": "id",
          "type": "uint256"
        }
      ],
      "payable": false,
      "stateMutability": "view",
      "type": "function"
    },
    {
      "constant": true,
      "inputs": [
        {
          "name": "",
          "type": "uint256"
        }
      ],
      "name": "votes",
      "outputs": [
        {
          "name": "",
          "type": "uint256"
        }
      ],
      "payable": false,
      "stateMutability": "view",
      "type": "function"
    },
    {
      "constant": true,
      "inputs": [],
      "name": "owner",
      "outputs": [
        {
          "name": "",
          "type": "address"
        }
      ],
      "payable": false,
      "stateMutability": "view",
      "type": "function"
    },
    {
      "constant": true,
      "inputs": [],
      "name": "candidateCount",
      "outputs": [
        {
          "name": "",
          "type": "uint256"
        }
      ],
      "payable": false,
      "stateMutability": "view",
      "type": "function"
    },
    {
      "inputs": [],
      "payable": false,
      "stateMutability": "nonpayable",
      "type": "constructor"
    },
    {
      "anonymous": false,
      "inputs": [
        {
          "indexed": false,
          "name": "id",
          "type": "uint256"
        },
        {
          "indexed": false,
          "name": "name",
          "type": "string"
        }
      ],
      "name": "CandidateAdded",
      "type": "event"
    },
    {
      "anonymous": false,
      "inputs": [
        {
          "indexed": false,
          "name": "id",
          "type": "uint256"
        },
        {
          "indexed": false,
          "name": "name",
          "type": "string"
        }
      ],
      "name": "CandidateRemoved",
      "type": "event"
    },
    {
      "anonymous": false,
      "inputs": [
        {
          "indexed": false,
          "name": "voter",
          "type": "address"
        },
        {
          "indexed": false,
          "name": "candidateId",
          "type": "uint256"
        }
      ],
      "name": "Voted",
      "type": "event"
    },
    {
      "constant": false,
      "inputs": [
        {
          "name": "_name",
          "type": "string"
        }
      ],
      "name": "addCandidate",
      "outputs": [],
      "payable": false,
      "stateMutability": "nonpayable",
      "type": "function"
    },
    {
      "constant": false,
      "inputs": [
        {
          "name": "_id",
          "type": "uint256"
        }
      ],
      "name": "removeCandidate",
      "outputs": [],
      "payable": false,
      "stateMutability": "nonpayable",
      "type": "function"
    },
    {
      "constant": false,
      "inputs": [
        {
          "name": "_candidateId",
          "type": "uint256"
        }
      ],
      "name": "vote",
      "outputs": [],
      "payable": false,
      "stateMutability": "nonpayable",
      "type": "function"
    },
    {
      "constant": true,
      "inputs": [
        {
          "name": "_candidateId",
          "type": "uint256"
        }
      ],
      "name": "getVotes",
      "outputs": [
        {
          "name": "",
          "type": "uint256"
        }
      ],
      "payable": false,
      "stateMutability": "view",
      "type": "function"
    },
    {
      "constant": true,
      "inputs": [
        {
          "name": "user",
          "type": "address"
        }
      ],
      "name": "isOwner",
      "outputs": [
        {
          "name": "",
          "type": "bool"
        }
      ],
      "payable": false,
      "stateMutability": "view",
      "type": "function"
    },
    {
      "constant": true,
      "inputs": [],
      "name": "getAllCandidates",
      "outputs": [
        {
          "components": [
            {
              "name": "name",
              "type": "string"
            },
            {
              "name": "id",
              "type": "uint256"
            }
          ],
          "name": "",
          "type": "tuple[]"
        }
      ],
      "payable": false,
      "stateMutability": "view",
      "type": "function"
    }
  ],
  "bytecode": "0x608060405234801561001057600080fd5b5033600460006101000a81548173ffffffffffffffffffffffffffffffffffffffff021916908373ffffffffffffffffffffffffffffffffffffffff16021790555060006003819055506111c4806100696000396000f3fe608060405234801561001057600080fd5b506004361061009e5760003560e01c8063462e91ec11610066578063462e91ec1461015a5780635df81330146101765780638da5cb5b146101a6578063a9a981a3146101c4578063ff981099146101e25761009e565b80630121b93f146100a357806309e9d7e2146100bf5780632e6997fe146100db5780632f54bf6e146100f95780633477ee2e14610129575b600080fd5b6100bd60048036036100b89190810190610ae8565b610212565b005b6100d960048036036100d49190810190610ae8565b6102d1565b005b6100e3610461565b6040516100f09190610e5c565b60405180910390f35b610113600480360361010e9190810190610a7e565b6105dd565b6040516101209190610e7e565b60405180910390f35b610143600480360361013e9190810190610ae8565b610637565b604051610151929190610e99565b60405180910390f35b610174600480360361016f9190810190610aa7565b6106f3565b005b610190600480360361018b9190810190610ae8565b61089a565b60405161019d9190610f29565b60405180910390f35b6101ae6108b2565b6040516101bb9190610e18565b60405180910390f35b6101cc6108d8565b6040516101d99190610f29565b60405180910390f35b6101fc60048036036101f79190810190610ae8565b6108de565b6040516102099190610f29565b60405180910390f35b6002600082815260200190815260200160002060009054906101000a900460ff16610272576040517f08c379a000000000000000000000000000000000000000000000000000000000815260040161026990610ec9565b60405180910390fd5b60016000828152602001908152602001600020600081548092919060010191905055507f4d99b957a2bc29a30ebd96a7be8e68fe50a3c701db28a91436490b7d53870ca433826040516102c6929190610e33565b60405180910390a150565b600460009054906101000a900473ffffffffffffffffffffffffffffffffffffffff1673ffffffffffffffffffffffffffffffffffffffff163373ffffffffffffffffffffffffffffffffffffffff1614610361576040517f08c379a000000000000000000000000000000000000000000000000000000000815260040161035890610f09565b60405180910390fd5b6002600082815260200190815260200160002060009054906101000a900460ff166103c1576040517f08c379a00000000000000000000000000000000000000000000000000000000081526004016103b890610ec9565b60405180910390fd5b7f8d662652a78c2e9ce96f9181f1cd23e1feb20980c5c52059a37c3c12160d742281600080848152602001908152602001600020600001604051610406929190610f74565b60405180910390a16000808281526020019081526020016000206000808201600061043191906108fb565b600182016000905550506002600082815260200190815260200160002060006101000a81549060ff021916905550565b6060806003546040519080825280602002602001820160405280156104a057816020015b61048d610943565b8152602001906001900390816104855790505b509050600080905060008090505b6003548110156105d4576002600082815260200190815260200160002060009054906101000a900460ff16156105c757600080828152602001908152602001600020604051806040016040529081600082018054600181600116156101000203166002900480601f0160208091040260200160405190810160405280929190818152602001828054600181600116156101000203166002900480156105945780601f1061056957610100808354040283529160200191610594565b820191906000526020600020905b81548152906001019060200180831161057757829003601f168201915b505050505081526020016001820154815250508383815181106105b357fe5b602002602001018190525081806001019250505b80806001019150506104ae565b50819250505090565b6000600460009054906101000a900473ffffffffffffffffffffffffffffffffffffffff1673ffffffffffffffffffffffffffffffffffffffff168273ffffffffffffffffffffffffffffffffffffffff16149050919050565b6000602052806000526040600020600091509050806000018054600181600116156101000203166002900480601f0160208091040260200160405190810160405280929190818152602001828054600181600116156101000203166002900480156106e35780601f106106b8576101008083540402835291602001916106e3565b820191906000526020600020905b8154815290600101906020018083116106c657829003601f168201915b5050505050908060010154905082565b600460009054906101000a900473ffffffffffffffffffffffffffffffffffffffff1673ffffffffffffffffffffffffffffffffffffffff163373ffffffffffffffffffffffffffffffffffffffff1614610783576040517f08c379a000000000000000000000000000000000000000000000000000000000815260040161077a90610f09565b60405180910390fd5b60008151116107c7576040517f08c379a00000000000000000000000000000000000000000000000000000000081526004016107be90610ee9565b60405180910390fd5b60006003549050604051806040016040528083815260200182815250600080838152602001908152602001600020600082015181600001908051906020019061081192919061095d565b506020820151816001015590505060016002600083815260200190815260200160002060006101000a81548160ff0219169083151502179055506003600081548092919060010191905055507fe83b2a43e7e82d975c8a0a6d2f045153c869e111136a34d1889ab7b598e396a3818360405161088e929190610f44565b60405180910390a15050565b60016020528060005260406000206000915090505481565b600460009054906101000a900473ffffffffffffffffffffffffffffffffffffffff1681565b60035481565b600060016000838152602001908152602001600020549050919050565b50805460018160011615610100020316600290046000825580601f106109215750610940565b601f01602090049060005260206000209081019061093f91906109dd565b5b50565b604051806040016040528060608152602001600081525090565b828054600181600116156101000203166002900490600052602060002090601f016020900481019282601f1061099e57805160ff19168380011785556109cc565b828001600101855582156109cc579182015b828111156109cb5782518255916020019190600101906109b0565b5b5090506109d991906109dd565b5090565b6109ff91905b808211156109fb5760008160009055506001016109e3565b5090565b90565b6000610a0e82356110c5565b905092915050565b600082601f830112610a2757600080fd5b8135610a3a610a3582610fd1565b610fa4565b91508082526020830160208301858383011115610a5657600080fd5b610a61838284611137565b50505092915050565b6000610a7682356110f7565b905092915050565b600060208284031215610a9057600080fd5b6000610a9e84828501610a02565b91505092915050565b600060208284031215610ab957600080fd5b600082013567ffffffffffffffff811115610ad357600080fd5b610adf84828501610a16565b91505092915050565b600060208284031215610afa57600080fd5b6000610b0884828501610a6a565b91505092915050565b6000610b1d8383610dbd565b905092915050565b610b2e81611101565b82525050565b610b3d8161107d565b82525050565b6000610b4e8261101c565b610b58818561104a565b935083602082028501610b6a85610ffd565b60005b84811015610ba3578383038852610b85838351610b11565b9250610b908261103d565b9150602088019750600181019050610b6d565b508196508694505050505092915050565b610bbd8161108f565b82525050565b6000610bce82611032565b610bd8818561106c565b9350610be8818560208601611146565b610bf181611179565b840191505092915050565b6000610c0782611027565b610c11818561105b565b9350610c21818560208601611146565b610c2a81611179565b840191505092915050565b6000610c4082611027565b610c4a818561106c565b9350610c5a818560208601611146565b610c6381611179565b840191505092915050565b600081546001811660008114610c8b5760018114610cb157610cf5565b607f6002830416610c9c818761106c565b955060ff198316865260208601935050610cf5565b60028204610cbf818761106c565b9550610cca8561100a565b60005b82811015610cec57815481890152600182019150602081019050610ccd565b80880195505050505b505092915050565b6000610d0a60188361106c565b91507f43616e64696461746520646f6573206e6f7420657869737400000000000000006000830152602082019050919050565b6000610d4a601e8361106c565b91507f43616e646964617465206e616d652063616e6e6f7420626520656d70747900006000830152602082019050919050565b6000610d8a600e8361106c565b91507f4e6f7420617574686f72697a65640000000000000000000000000000000000006000830152602082019050919050565b60006040830160008301518482036000860152610dda8282610bfc565b9150506020830151610def6020860182610dfa565b508091505092915050565b610e03816110bb565b82525050565b610e12816110bb565b82525050565b6000602082019050610e2d6000830184610b34565b92915050565b6000604082019050610e486000830185610b25565b610e556020830184610e09565b9392505050565b60006020820190508181036000830152610e768184610b43565b905092915050565b6000602082019050610e936000830184610bb4565b92915050565b60006040820190508181036000830152610eb38185610c35565b9050610ec26020830184610e09565b9392505050565b60006020820190508181036000830152610ee281610cfd565b9050919050565b60006020820190508181036000830152610f0281610d3d565b9050919050565b60006020820190508181036000830152610f2281610d7d565b9050919050565b6000602082019050610f3e6000830184610e09565b92915050565b6000604082019050610f596000830185610e09565b8181036020830152610f6b8184610bc3565b90509392505050565b6000604082019050610f896000830185610e09565b8181036020830152610f9b8184610c6e565b90509392505050565b6000604051905081810181811067ffffffffffffffff82111715610fc757600080fd5b8060405250919050565b600067ffffffffffffffff821115610fe857600080fd5b601f19601f8301169050602081019050919050565b6000602082019050919050565b60008160005260206000209050919050565b600081519050919050565b600081519050919050565b600081519050919050565b6000602082019050919050565b600082825260208201905092915050565b600082825260208201905092915050565b600082825260208201905092915050565b60006110888261109b565b9050919050565b60008115159050919050565b600073ffffffffffffffffffffffffffffffffffffffff82169050919050565b6000819050919050565b60006110d0826110d7565b9050919050565b600073ffffffffffffffffffffffffffffffffffffffff82169050919050565b6000819050919050565b600061110c82611113565b9050919050565b600061111e82611125565b9050919050565b60006111308261109b565b9050919050565b82818337600083830152505050565b60005b83811015611164578082015181840152602081019050611149565b83811115611173576000848401525b50505050565b6000601f19601f830116905091905056fea265627a7a72305820adf6a102ae78777962d239c0a7a7037c0f6f5b2c094a0e01d12bf75f8a797fb86c6578706572696d656e74616cf50037",
  "source": "// SPDX-License-Identifier: MIT\npragma solidity >=0.4.22 <0.9.0;\npragma experimental ABIEncoderV2;\n\ncontract VotingSystem {\n    struct Candidate {\n        string name;\n        uint id;\n    }\n\n    mapping(uint => Candidate) public candidates;\n    mapping(uint => uint) public votes; \n    mapping(uint => bool) private candidateExists;\n\n    uint public candidateCount;\n    address public owner;\n\n    modifier onlyOwner() {\n        require(msg.sender == owner, \"Not authorized\");\n        _;\n    }\n\n    event CandidateAdded(uint id, string name);\n    event CandidateRemoved(uint id, string name);\n    event Voted(address voter, uint candidateId);\n\n    constructor() public{\n        owner = msg.sender;\n        candidateCount = 0;\n    }\n\n    \n    function addCandidate(string memory _name) public onlyOwner {\n        require(bytes(_name).length > 0, \"Candidate name cannot be empty\");\n\n        uint newId = candidateCount; \n        candidates[newId] = Candidate(_name, newId);\n        candidateExists[newId] = true;\n        candidateCount++; \n\n        emit CandidateAdded(newId, _name);\n    }\n\n    \n    function removeCandidate(uint _id) public onlyOwner {\n        require(candidateExists[_id], \"Candidate does not exist\");\n\n        emit CandidateRemoved(_id, candidates[_id].name);\n\n        delete candidates[_id];\n        delete candidateExists[_id];\n    }\n\n    //whether a person has already voted or not is checked by the frontend\n    function vote(uint _candidateId) public {\n        require(candidateExists[_candidateId], \"Candidate does not exist\");\n\n        \n        votes[_candidateId]++;\n        \n        //update database to store the address of the user who casted vote\n        emit Voted(msg.sender, _candidateId);\n    }\n\n    \n    function getVotes(uint _candidateId) public view returns (uint) {\n        return votes[_candidateId];\n    }\n\n    \n    function isOwner(address user) public view returns (bool) {\n        return user == owner;\n    }\n\n    \n    function getAllCandidates() public view returns (Candidate[] memory) {\n        Candidate[] memory allCandidates = new Candidate[](candidateCount);\n        uint index = 0;\n\n       \n        for (uint i = 0; i < candidateCount; i++) {\n            if (candidateExists[i]) {\n                allCandidates[index] = candidates[i];\n                index++;\n            }\n        }\n\n        return allCandidates;\n    }\n}\n",
  "sourcePath": "/Users/noorfatima/Desktop/Blockchain-Voting-System/Truffle/contracts/VotingSystem.sol",
  "compiler": {
    "name": "solc",
    "version": "0.5.7+commit.6da8b019.Emscripten.clang"
  },
  "schemaVersion": "3.4.16",
  "updatedAt": "2025-02-15T13:49:37.713Z",
  "networkType": "ethereum",
  "devdoc": {
    "methods": {}
  },
  "userdoc": {
    "methods": {}
  }
}